:400000000080002011000000311C0000311C000008B5044B1A6803F53F5302331A6001F027FE00BFFA46004010B5054C237833B9044B13B10448AFF300800123237010BDB7
:400040008085FF1F0000000068480000084B10B51BB108490848AFF300800848036803B910BD074B002BFBD0BDE81040184700BF000000008485FF1F68480000C880FF1F2A
:400080000000000070B5094C2378094D102205F813202678F6B203F0C1FD05EB4605687023780133DBB2237070BD00BF9C85FF1FD489FF1F70B5094C2378094D112205F839
:4000C00013202678F6B203F0C7FD05EB4605687023780133DBB2237070BD00BF9C85FF1FD489FF1F70B5094C2378094D122205F813202678F6B203F0B5FD05EB460568705B
:4001000023780133DBB2237070BD00BF9C85FF1FD489FF1F70B5094C2378094D132205F813202678F6B203F0A3FD05EB4605687023780133DBB2237070BD00BF9C85FF1F54
:40014000D489FF1F08B503F07BFD00F07F0003F071FD08BDF8B5002003F05EFE0C4C6678F6B203F099FE074603F09CFE094D00EB072025F826006678F6B203F087FE05EB50
:400180008605A87063780133DBB26370F8BD00BF9C85FF1FD485FF1F08B5012001F02EFF062001F0FDFD002001F028FF08BD00BF0FB410B5A2B00D4B1B687BB925AA0192EF
:4001C000249902A803F054FF044602F00FFD0028FBD002A802F09AFC204601E04FF0FF3022B0BDE8104004B0704700BFCC80FF1F0FB410B5A2B024AA52F8041B019202A887
:4002000003F036FF044602A802F0CEF9204622B0BDE8104004B0704710B5124B1B79EBB1002003F0E1FC1048FFF7C2FF05E00F48FFF7BEFF0A2001F0B3FD03F0E1FC04462C
:400240000028F4D103F0DCFC20B90948FFF7B0FF012404E00748FFF7ABFF00E00124204610BD00BFCC80FF1F6C48000080480000844800008C48000010B50B4B1B7983B19F
:40028000002003F0B1FC02E0012001F089FD03F0B7FC04460028F7D103F0B2FC10B9012400E00124204610BDCC80FF1F10B5124B1B79F3B1012003F097FC1048FFF778FF2D
:4002C00005E00F48FFF774FF0A2001F069FD03F097FC0128F5D103F093FC0446012803D10848FFF765FF05E00748FFF761FF002400E00124204610BDCC80FF1F98480000C0
:4003000080480000844800008C48000008B50B4B1B797BB1012003F067FC02E0012001F03FFD03F06DFC0128F8D103F069FC012802D108BD012008BD002008BDCC80FF1F3F
:40034000F8B50746FFF768FF002849D00F2003F05FFC002001F0E6FC0C2001F0E9FC002001F0A2FD0C2001F0A5FD0A2003F050FC3C4620E0C4F3072001F096FDE0B201F034
:40038000D1FC052001F022FD01F0CAFD0646052001F01CFD14F01F0503D121461148FFF707FF31461048FFF703FF1F2D02D10F48FFF7FEFE013407F580739C42DAD307204B
:4003C00003F026FC002001F0ADFC022001F0B0FC002001F069FD022001F06CFDFFF766FFF8BD00BFB4480000BC480000004B00002DE9F041FFF710FF002800F00881002055
:4004000001F090FC0C2001F093FC002001F04CFD0C2001F04FFD0F2003F0FAFB7D48FFF7C7FE00242BE0C4F30726304601F03CFDE5B2284601F076FC304603F0E7FC1C2096
:4004400003F0E6FB012001F0C1FC0F2003F0E0FB012001F0BBFC681CC0B201F063FC284603F0D4FC1C2003F0D3FB012001F0AEFC0F2003F0CDFB012001F0A8FC0234B4F564
:40048000803FD0D36448FFF793FE0A2003F0C0FB0024264632E0C4F30725284601F004FDE7B2384601F03EFC022001F08FFC01F037FD8046012001F089FC14F0010F01D0A3
:4004C0007D1EEDB2454518D043462A4621465348FFF76EFE013604F47F40FFF731FFFFF79BFE002800F093800C2001F021FC0C2001F0E0FC0A2003F08BFB0134B4F5803FB2
:40050000C9D30F2003F084FB4548FFF751FE00252DE0C5F30727384601F0C6FCECB2204601F000FCF843C0B203F070FC1C2003F06FFB012001F04AFC0F2003F069FB0120CE
:4005400001F044FC601CC0B201F0ECFBE043C0B203F05CFC1C2003F05BFB012001F036FC0F2003F055FB012001F030FC0235B5F5803FCED32848FFF71BFE0A2003F048FB0B
:40058000002422E0C4F30725284601F08DFCE7B2384601F0C7FB012001F018FC01F0C0FC8046012001F012FC14F0010F02D07A42D2B201E0EA43D2B2424505D043462146C3
:4005C0001648FFF7F5FD01360134B4F5803FD9D3072003F01DFB002001F0A4FB022001F0A7FB002001F060FC022001F063FC26B131460C48FFF7DCFD02E00B48FFF7D8FD4E
:40060000FFF754FE0948FFF7D3FDFFF7C5FDBDE8F08100BFC4480000E0480000F04800002049000048490000604900007849000070B5FFF7F1FD002800F0D780002001F075
:4006400071FB0C2001F074FB002001F02DFC0C2001F030FC012001F081FC0C2001F08AFC012001F063FC0C2001F06CFC5F48FFF79FFD4FF4784400258CE0C4F3072001F03F
:4006800013FCE0B201F04EFB002001F04FFC052001F09CFB01F044FC0646012001F046FC052001F093FBA52003F0B0FB172003F0AFFA002001F052FC052001F087FB012093
:4006C00001F04CFC072003F0A3FA052001F07EFB002001F02BFC052001F078FB01F020FCA52809D001F01CFC0346A52221464048FFF75EFD0135ADB2012001F017FC0520CF
:4007000001F064FB5A2003F081FB172003F080FA002001F023FC052001F058FB012001F01DFC072003F074FA052001F04FFB002001F0FCFB052001F049FB01F0F1FB5A286F
:4007400009D001F0EDFB03465A2221462848FFF72FFD0135ADB2012001F0E8FB052001F035FB012001F01CFB304603F04FFB172003F04EFA002001F0F1FB052001F026FBB7
:40078000012001F0EBFB072003F042FA052001F01DFB0134B4F57D4FFFF46FAF072003F037FA002001F0BEFA022001F0C1FA002001F07AFB022001F07DFB012001F0B6FB4C
:4007C000022001F0BFFB012001F0C8FB022001F0D1FB25B929460748FFF7EAFC03E029460548FFF7E5FCFFF761FD70BDBC490000E8490000144A00002C4A000010B50C46E8
:4008000001F090FA204603F001FB172003F000FA002001F0D3FB042001F0D8FA012001F0CDFB072003F0F4F910BD00BF10B501F079FA002001F0AAFB042001F0C7FA01F0EB
:400840006FFB0446012001F0A1FB204610BD00BF2DE9F04190B0FFF7DFFC002800F08880002001F05FFA002001F01EFB012001F08DFB012001F0A2FB0C2001F059FA0C2033
:4008800001F018FB0C2001F08DFB0C2001F0A2FB4FF0000858E05FFA88F505EB18250635ADB26D42EDB22A4641463348FFF780FC002743E000216120FFF7A0FFF9B26220D9
:4008C000FFF79CFF5FFA88F16320FFF797FF002430E014F01F0607D13D192035ADB2224639462648FFF764FC6020FFF79FFF83B21D44ADB2224A02EB13131B7A8DF80030CA
:4009000000F00F001044037A8DF8013000238DF8023002F06BF90028FBD0684602F0F6F81F2E05D16D42EDB229461648FFF740FC0134A4B2FF2CCCD90137BFB2FF2FB9D94C
:4009400008F101081FFA88F8B8F13F0FA3D90E48FFF72EFC022001F0EBF9022001F0AAFA022001F01FFB022001F034FBFFF79EFC10B0BDE8F08100BF444A0000584A000081
:40098000CC80FF1F0C4A0000684A00002DE9F0478046894692461E46BDF82050FFF76CFC00285DD0002001F0BDF9002001F07CFA012001F0EBFA012001F000FB0C2001F060
:4009C000B7F90C2001F076FA0C2001F0EBFA0C2001F000FB51466120FFF710FF49466220FFF70CFF41466320FFF708FF002404E0315D6020FFF702FF01342F46AC42F7DBF3
:400A000051466120FFF7FAFE49466220FFF7F6FE41466320FFF7F2FE0024254607E06020FFF704FF335D984200D001350134BC42F5DB1DB90B48FFF7BBFB03E029460A48EA
:400A4000FFF7B6FB022001F073F9022001F032FA022001F0A7FA022001F0BCFAFFF756FCBDE8F08784480000784A000070B58CB00646451C684A53680133536000245BE0E1
:400A80002B78A3F13002162A1BD8DFE802F00C0C0C0C0C0C0C0C0C0C1A1A1A1A1A1A1A13131313131300303B1B010CAA224402F8283C0FE0373B1B010CAA224402F8283C49
:400AC00008E0A91B5548FFF773FB534A9368013393609FE0691C6A78A2F13003162B1FD8DFE803F00C0C0C0C0C0C0C0C0C0C1E1E1E1E1E1E1E151515151515000CAB19193B
:400B000011F8283C1A44303A01F8282C11E00CAB191911F8283C1A44373A01F8282C08E0891B3E48FFF744FB3B4A93680133936070E002350134E4B2284603F050FA0128BC
:400B400001D9242C9CD9042C10D821463448FFF72FFB314A9368013393605BE00CA9114411F8281C0B449BB2013201E000221346601E8242F2DB5B42DAB20CAB184410F80E
:400B8000281C8BB29A4207D02648FFF711FB224A9368013393603DE09DF80810621F914207D02148FFF704FB1B4A93680133936030E09DF80B30012B11D013B1042B12D067
:400BC00028E09DF80A209DF80940134B187B009103AB214600F03F00FFF7D8FE1AE01348FFF7E6FA16E0062C08D821461048FFF7DFFA094A9368013393600BE09DF80C10EC
:400C00009DF80D3003EB012189B2034B99810948FFF7CEFA0CB070BD9C85FF1F984A0000AC4A0000D04A0000044B0000384B0000484B0000884B00002DE9F041C0B00027F0
:400C40003D4601F0C7FF28B1781920AB184401F0D9FF0544EB19002B21DD9DF880303A2B1DD01648FFF7A4FA25E020AEC6EB08073A463146684603F0CFF900250DF807506D
:400C8000E41B671E3A4608F10101304603F08AF969460B48FFF78CFA6846FFF7E7FEEC19002CCEDD22460D2120A803F06DF980460028DAD1C5E740B0BDE8F081B04B000069
:400CC000CC4B000010B5144C2046FFF771FA1348FFF76EFA1248FFF76BFA1248FFF768FA1148FFF765FA1148FFF762FA1048FFF75FFA1048FFF75CFA0F48FFF759FA0F4836
:400D0000FFF756FA0E48FFF753FA0E48FFF750FA2046FFF74DFA10BD004B0000D44B0000044C0000584C0000A04C0000E84C0000304D00004C4D0000744D0000B04D00007C
:400D4000FC4D0000244E00002DE9F047B0B062B69F4802F0ADFF9F4802F0D2FF9E4802F0F7FF9E4803F01CF89D4803F041F89D4803F078F803F070F802F02AFF01F090F9C0
:400D800001F0D4FB00213C2001F006FB28B101F043FB0122944B9A6121E001F03DFB0024914B9C613C2000F031FC00F0E5FB022000F052FC012000F057FC204600F05AFC1F
:400DC0002146204600F042FC884800F0E1FD884800F0DEFD874800F0DBFD00F0DBFB02F0B1FE854B18610121002001F0EDFC02F0A9FE044602E0012000F0D2FF01F01CFDAB
:400E000028B902F09FFE001BB0F5FA6FF3D302F099FE001BB0F5FA6F05D201F02BFE0022714B1A6002E001226F4B1A607348FFF7BFF97348FFF7BCF97248FFF7B9F901F0FD
:400E4000D5F8012806D1202002F0EEFE6E48FFF7AFF908E0002002F0E7FE6C48FFF7A8F96B48FFF7C5F9604B9B691BB16948FFF79FF902E06848FFF79BF95F4B00255D7030
:400E80001D75012002F0C8FFFFF786F902F0F8FF8DF840506148FFF78BF92C46AA46564B5A7DD2B21B78DBB29A4214D11AE0524B5A7D5B4B13F81230122B07D14E4B5A7D0B
:400EC000574B03EB4203587801F062FB4A4A537D0133DBB25375484B5A7DD2B21B78DBB29A42E4D1444B1A7DD2B25B78DBB29A4226D0002D16DD404B187D4A491B7D01EB40
:400F000083039A7831F820104748FFF751F9013D08D102F0A1FF02F0B3FF4048FFF748F90024A246344A137D0133DBB21375117DC9B25378DBB2994202D1012002F06CFFF5
:400F400001F01AFB58B101F00DFBC0B202F07EFE02F076FE60F07F00C0B202F06BFE01F039FE00289BD0684601F04CFE8146002724E130AB3B4413F8C08CB8F10D0F1AD090
:400F800003D8B8F1080F06D017E1A8F120035F2B40F2FD8011E110A803F021F8002840F30C81013830AB1844002300F8803C1F48FFF7FEF801E11E48FFF7FAF89DF8403066
:400FC0003A2B37D110A8FFF751FD0126002432E085000000B5000000E5000000150100004501000055010000CC80FF1F484E0000544E0000604E00009C85FF1F344B00004C
:401000006C4E0000A44E0000C84E0000F84E0000284F00004C4F0000684F0000844F0000D489FF1FD485FF1F8C4F00009C4F0000004B000000260422624910A802F0D7FF92
:4010400048B1614910A802F0C0FF20B15F4910A802F0BBFF20B91EB9FFF734FE012600245B4910A802F0B1FF20B91EB9FFF7F0FB01260024574910A802F0A7FF10B90EB90A
:4010800001260024544910A802F09FFF30B92EB94FF47040FFF754F9012600244F4910A802F093FF20B91EB9FFF7C2FA012600244B4910A802F089FF20B91EB9FFF7BCFD09
:4010C00001260024474910A802F07FFF20B91EB9FFF78EF901260024434910A802F075FF40B93EB9FFF758F810A94048FFF760F8012600243E4910A802F067FF60B95EB9F4
:4011000002F020FD3B4B186100245C609C6010A93948FFF74DF80126384910A802F055FF60B95EB902F00EFD324A116993685268411A3348FFF73CF801260024314910A855
:4011400002F043FF98B996B9BAF1000F0CD1294B00225A701A7502F093FE02F077FE01263446B246102502E00126344610259DF8403023B11EB910A92348FFF719F814B9FD
:401180002248FFF715F800238DF8403015E010A802F025FF7E2810DC30AB034403F8808C013030AB1844002300F8803C01F01EFD0028FBD0404601F0F9FC01374F45FFF6C1
:4011C000D8AE6CE6A04F0000A84F0000AC4F0000B04F0000B84F0000C04F0000C44F0000CC4F0000D04F0000D84F0000E04F0000F04F00009C85FF1FF84F00000C5000005D
:40120000105000004850000050500000844F000083B27F2B3CD800293ADB3F2938DC012A03D09AB1022A23D070471A4A0B46002900DACB1DDB1000EBC31001F00701012311
:4012400003FA01F1135C194311547047114A0B46002900DACB1DDB1000EBC31001F00701012303FA01F1135C23EA010111547047084A0B46002900DACB1DDB1000EBC3107B
:4012800001F00701012303FA01F1135C59401154704700BFE980FF1FF0B5BDF81440904267D10D46002900DACD1DED1000EBC510444F07441846002B00DAD81DC01002EB10
:4012C000C012404810443A4650E0BA4218D13E4D0D4003D5013D65F007050135EEB2F5186D1AEDB2062D00D90725AD1B01354FF0010E0EFA05F5013D05FA06F6F6B20EE0FE
:4013000082420CD1304D1D4003D5013D65F0070501352DB2012606FA05F56E1EF6B2BA4201D0824212D1012C03D034B1022C09D01BE015783543157017E0157825EA0605CE
:40134000157012E01578754015700EE0012C03D02CB1022C06D008E0FF25157005E00025157002E01578ED43157080328242ACD9F0BD0B46002900DACB1DDB1000EBC3138C
:40138000104D2B44121A1A4401F00701012000FA01F1CDB212E0012C03D034B1022C09D00BE018782843187007E0187820EA0100187002E018786840187001339342EAD98E
:4013C000F0BD00BFE980FF1F07000080B1F90020154B1B78022B0CD0032B19D0012B21D1B0F900300B80114B1B889A1A013A02807047B0F900200D4B1B889B1A013B0380B5
:40140000B1F900200A4B1B889B1A013B0B80704710B4B0F90040064B1B881B1B013B0B80028010BC704700BFDA8BFF1FD88BFF1FDC8BFF1F10B584B0ADF80E00ADF80C105F
:40144000ADF80A20ADF80830904203D009B21BB2994271D1394B1B78012B01D0032B1AD1002869DB364BB3F90030984264DA002A62DB9A4260DABDF90C30002B5CDB314A1C
:40148000B2F90020934257DABDF90830002B53DB9A421ADC50E0BDF90C30002B4CDB2849B1F900108B4247DABDF90830002B43DB994241DD00283FDB224BB3F90030984220
:4014C0003ADA002A38DB9A4236DA03A90DF10E00FFF77CFF02A90DF10A00FFF777FFBDF90E30BDF90A20934205D1BDF90800BDF90C10884207DBBDF90C00BDF90810884252
:401500000DD193420BDDADF80E20ADF80A30BDF90C30BDF80820ADF80C20ADF80830BDF90830BDF90A20BDF90C10BDF90E00BDF818400094FFF7B0FE04B010BDDA8BFF1F34
:40154000DC8BFF1FD88BFF1FF8B507460E460021084B187800F020FF0024FF2504E0385D00F076FF05460134B442F8DB00F054FF2846F8BDB285FF1F10B5054C4FF480629F
:401580000021601C02F019FD4023237010BD00BFE880FF1F00B583B00A4B186800909A889B79ADF804208DF8063007216846FFF7CBFF40F201410448FFF7C6FF03B05DF85E
:4015C00004FB00BF88500000E880FF1F0A4B18800A4B19800A4B58809980002209490A70DA801A8101229A724FF6FF719981D981054B1A70704700BFD88BFF1FDC8BFF1F1D
:40160000B285FF1FDA8BFF1FDE8BFF1F30B589B00C4B187040218020FFF7D8FF01AC0A4D55F8080F6968AA68EB680FC42869696903C42B8B23801A2101A8FFF785FF09B075
:4016400030BD00BFB285FF1F88500000014BD88019817047B285FF1F08B90120FFE7014B98727047B285FF1F014B9881D8817047B285FF1F014B9881704700BFB285FF1F23
:4016800010B582B0ADF80600ADF80410002819DB0D4BB3F90230984214DA0BB2002B11DB0949B1F904108B420CDA144601A90DF10600FFF78BFE2246BDF90410BDF90600A9
:4016C000FFF7A6FD02B010BDB285FF1F2DE9F04F85B005460E461746BDF838200292B84201D0994207D1029A00923A4631462846FFF7A0FE52E0C1EB0308B8F1000FB8BF99
:40170000C8F10008C0EB0709B9F1000FB8BFC9F10009C84504DD3A461F4613460D460646BD4205DD32461E4613462A463D461746C5EB070B1FFA8BFB0FFA8BF4C6EB030A62
:40174000BAF1000FB8BFCAF1000A04EBD47464109E4202DA012303931EE04FF0FF3303931AE0C84505DD029A29463046FFF788FF04E0029A31462846FFF782FFCAEB0404CD
:40178000A3B21CB2002C05DA039A164436B20BEB030424B201352DB2BD42E2DD05B0BDE8F08F00BF2DE9F04383B005460E4617469846BDF8289093420FDC0C461EE006EB1A
:4017C0000803013BCDF800901BB2224631462046FFF77CFF013424B200E00446EB199C42EDDB0FE0EA19013ACDF80090234612B221462846FFF76AFF013424B206EB080301
:401800009C42EFDB03B0BDE8F08300BF2DE9F04F85B0BDF838B09DF83C60364CB4F90240844263DD334CB4F904408C425EDD06EB46056C000444012C58D401EBC604012C02
:4018400054D4984603928A46814600274CE0052F08D0039B03EB83033B44274A134493F8245000E0002500243AE015F0010F19D0012E09D104EB0A0107EB0900424609B2FD
:4018800000B2FFF7FDFE28E0B0B232B204FB00A107FB0090CDF80080134609B200B2FFF781FF1AE0D84518D0012E09D104EB0A0107EB09005A4609B200B2FFF7E1FE0CE0B9
:4018C000B0B232B204FB00A107FB0090CDF800B0134609B200B2FFF765FF6D08013464B2072CC2DD01377FB2052FB0DD05B0BDE8F08F00BFB285FF1F885000000A2808D14F
:401900001A4B997A1A8902EBC1021A810022DA8070470D28FCD030B583B00246134CE389B4F90810B4F90600A57A0195A5890095FFF76CFFA27A91B201EB41035800E3883F
:4019400003441BB2E3800A48007868B1A2EB82025000B4F902201044834205DD228902EBC10121810022E28003B030BDB285FF1FDE8BFF1F70B5064602F031FB05460024E8
:4019800003E0305DFFF7BAFF0134AC42F9D370BD08B5FFF7EFFF0A20FFF7B0FF08BD00BFFEE700BFF0B40022174611E050F82760F3B226F0FF0608E001EB420511F812403B
:4019C0006D78A5550132013BDBB2002BF4D10137252FEBD9F0BC7047064B1B78DBB203F00701054A11701B09013213704422034B1A707047CF0100496E5800407658004031
:401A000038B500242B4B1C80192502331D70092202331A801823284A13705521023211800232137045F6BF52244B1A8002331D70062203F272231A705222A3F580731A708B
:401A40001F4B1B78DBB21F4A137040F62E521E4B1A8042F25122023B1A800CE01B4B1B7803F0010343EA440404F003044FF4F07002F01EFA013D0DB1032CEFD115B90320E4
:401A8000FFF78EFF124A4FF48073138007231370002310490B7048200231087013700532137002220C4B1A700C4A137843F00F03137038BD80400040864000408C400040D5
:401AC0000F010049A14600402242004025420040044000400640004001400040A243004008B50A46002102F068FA08BD08B502F059FA08BD38B572B66122384B1A70FFF7C2
:401B00007FFF00240CE0364D630019194A0011462A44084691882858FFF7E2FF0134E4B2072CF0D900240BE02D48A20011194B0003441A8F596B186BFFF7D8FF0134E4B201
:401B4000032CF1D927494FF09040FFF72BFF264A137843F0020313701032137843F002031370224C237843F040032370A2F58632513A137843F0100313700A221C491D4859
:401B8000FFF7B4FF0A221C491C48FFF7AFFF05221B491C48FFF7AAFF0A221B491B48FFF7A5FF0A221A491B48FFF7A0FF08221A491A48FFF79BFF0A2219491A48FFF796FF47
:401BC000194A137843F008031370FFF705FF0E2221461648FFF78AFF38BD00BF00480040A85500009800004803500140A04300403C0F004800510040480F0048C0510040E4
:401C0000540F0048CB5100405C0F0048F0510040680F004810510040740F0048225100407C0F00483051004022430040B043004008B502F07DF903680C2B00D1FEE7FEE7BD
:401C400008B5094B1A681044084BC31AB3F5005F02DC054B186005E002F06AF90C2303604FF0FF32104608BDEC84FF1FD08CFF1F08B5104E104D16E029686B68AC68002239
:401C800004E051F8040B43F8040B0432A242F8D1E868002203E0002143F8041B04328242F9D11035013E002EE6D102F047F9FFF74BF8FEE701000000CC57000008B5104A33
:401CC000104B1A60104A136843F40073136000230AE0032B03D80D4A52F8231000E00C490C4A42F8231001332F2BF2D90A4B1A780A4B1A70074A0A4B1A60FFF7FBFE08BD48
:401D00000004FA050CED00E014ED00E000000000311C00000080FF1FBC760040C080FF1F08ED00E0014B1A781870704720510040194A137800F00E0003F0F10303431370EC
:401D40000132137803F0F103034313700132137803F0F103034313700132137803F0F103034313700132137803F0F103034313700132137803F0F10303431370013213787F
:401D800003F0F103034313700132137803F0F10318431070704700BF1050004001BE704710B5044605E0084B186802F081F8A4F50044B4F5004FF6D8034B586800FB04F095
:401DC00002F076F810BD00BFF084FF1F08B5034B1B7A00FB03F002F06BF808BDF084FF1F70B504460E46074B1D681F2802D90020FFF7D4FF04F01F04103455F8240045F87D
:401E0000246070BD08ED00E038B504460D46072902D90020FFF7C2FF1F2C02D90020FFF7BDFF04F01F0000F1604000F564406D01EDB2057038BD00BF134B1B78DBB2036064
:401E4000124A127843EA02230360114A127843EA024303600F4A127843EA026303600E4B1B78DBB243600D4A127843EA022343600B4A127843EA024343600A4A127843EA44
:401E800002634360704700BF0301004904010049EC4600400201004901010049000100490501004906010049014B1A781870704730510040194A137800F00E0003F0F10366
:401EC000034313700132137803F0F103034313700132137803F0F103034313700132137803F0F103034313700132137803F0F103034313700132137803F0F10303431370F3
:401F00000132137803F0F103034313700132137803F0F10318431070704700BF18500040014B1878704700BF01510040044A137803F0BF03800100F04000184310707047E0
:401F400010510040044A137803F0F10300F00E0018431070704700BF0E500040044A137803F07F03C001C0B218431070704700BF10510040044A137803F0F10300F00E00E2
:401F800018431070704700BF0F500040044A137803F0EF03000100F0100018431070704710510040044A137803F0F10300F00E0018431070704700BF0C500040044A1378BB
:401FC00003F0DF03400100F0200018431070704710510040044A137803F0F10300F00E0018431070704700BF0D500040024B1878C0F38000704700BFC1510040044A13782B
:4020000003F0DF03400100F02000184310707047C051004010B50222114B1A7081220E3B1A70082202331A700D2211331A70002401331C704FF400420A4B1A6007210F20DD
:40204000FFF7E2FE08490F20FFF7CAFE1022074B1A70074B1C70074B1C70074B1C7010BDD649004080E100E0C9200000DF8BFF1FE08BFF1FE28BFF1FE38BFF1F08B501F078
:402080001FFF064A137843F0040313701032137843F00403137001F017FF08BDA543004008B5074B1B7823B9FFF7B4FF0122044B1A70FFF7E3FF4FF40042024B1A6008BDE0
:4020C000C285FF1F00E100E038B5A54B1C78A54B1B7813F0400F00F03A81E4B214F0010F00F01D819F4B1B78453B052B00F21481DFE813F006008200120112010600DF0080
:4021000004F0DF0504F00A04082C42D1954B1B78DBB2452B35D1944B1B7813F0FF0F10D0924B1B681B78DBB2914A137004228C4B1A7001228F4B1A7046228A4B1A702C4680
:40214000EDE08D4B1B7813F0020F0DD08B4A137843F00A0313706022824B1A704FF40042874B1A602C46DAE0864A137843F0100313701022844B1A700422023B1A702C462F
:40218000CDE00022764B1A704A22764B1A702C46C5E00A2C2BD1794A137843F0A0031370754B1B7813F0020F14D06E4B1B7813F0080F01D0092300E00A23704A11780B4312
:4021C00013706022674B1A704FF400426C4B1A602C46A4E06B4A137843F0100313701022694B1A700422023B1A702C4697E00020FFF7D4FD2C4692E014F0020F36D15D4B14
:402200001A78D2B2584B1B78DBB29A4210D2594A1378DBB255490968CB5CDBB254490B7004214F4B197013780133DBB2137076E0514B1B7813F0020F0CD0504A137843F08D
:402240000A0313706022474B1A704FF400424C4B1A6064E04B4A137843F0100313701022494B1A700422023B1A7058E0424B1B7813F0020F0CD0414A137843F09A0313707F
:402280006022384B1A704FF400423D4B1A6046E03C4A137843F01003137010223A4B1A700422023B1A70354A137843F09003137035E0364A1378DBB2354908682C490978F6
:4022C000C9B2C15413780133DBB213701278D2B2304B1B78DBB29A4203D21022204B1A701DE0254B1B7813F0020F0CD0234A137843F00903137060221A4B1A704FF400425E
:402300001F4B1A600BE01F4A137843F0100313700022134B1A7002E00020FFF73FFD14F0200F1CD00F4B1B7813F0080F01D0012300E00223114A11780B431370114A137818
:4023400003F0EF0313701022064B1A7038BD054B1B7813F0100F02D11022024B1A7038BDD7490040DF8BFF1FE88BFF1FEC8BFF1FD8490040E38BFF1FE18BFF1FE08BFF1F0F
:4023800080E100E0D6490040D9490040E28BFF1FE48BFF1FF08BFF1F1A4B1B78DBB2102B29D1194B1B7813F0080F26D14FF40042164B1A604000C0B229B140F00100492220
:4023C000104B1A7002E045220E4B1A70104B1870012201331A700F4B1B7813F0010FFAD00C4B1B7803F00A030A2B08D11022054B1A7003207047022070470120704700208F
:40240000704700BFDF8BFF1FD949004080E100E0D8490040D74900400A4B1B7813F0040F0ED01023074A13700421023A1170064A1370064B1B7813F0210FFAD000207047EA
:4024400002207047D9490040DF8BFF1FD7490040114B1B7813F0040F1BD0104B18700422013B1A7046220E4B1A700E4B1B7813F0010FFAD00B4B1B7813F0020F04D1602212
:40248000074B1A70002070476022054B1A70032070470220704700BFD9490040D8490040DF8BFF1FD749004010B501F009FD04460A4A137843F020031370A2F5807213781E
:4024C00043F010031370023A137843F01003137001F010FB204601F0F7FC10BD98650040014B1878704700BF7E640040014B1870704700BF7E64004008B572220A4B1A7023
:402500002022A3F580731A7006225E3B1A70472210331A7000224C331A70FFF7E1FF00F0E700FFF7E3FF08BD8865004008B5054B1B7823B9FFF7E0FF0122024B1A70FFF7E0
:40254000B3FF08BDC385FF1F014B1878704700BF48640040024B187800F07F00704700BF6864004010B5FFF7F5FF0402FFF7ECFF204380B210BD00BF044B1B7813F0200FA7
:4025800001D0012070470020704700BF68640040034B1B7813F0040FFAD1024B18707047666400404764004038B5074B1B782BB938BDFFF7EDFF0134A4B201E00546002425
:4025C000285D0028F5D138BDC385FF1FF8B501F077FC0546404A137843F0010313701032137843F00103137001273C4B1F700226943B1E7002F5E2521B32137803F07F0320
:4026000013700020FFF7E2FB354C237803F0F9032370344A137803F0DF03137023783B4323703846FFF7D2FB2820FFF7CFFB2E4B1A7802F07F021A701A7802F0BF021A7059
:402640002378334323703046FFF7C0FB237843F0040323700023254A137001321370284601F032FC07211720FFF7CEFB20491720FFF7B6FB07211820FFF7C6FB1D491820B5
:40268000FFF7AEFB07211520FFF7BEFB1A491520FFF7A6FB07210620FFF7B6FB17490620FFF79EFB07210846FFF7AEFB14490720FFF796FB07210820FFF7A6FB11490820AD
:4026C000FFF78EFB07210C20FFF79EFB0E490C20FFF786FBF8BD00BFA54300409D6000409443004012600040F8510040846000409D310000852F000099310000F9300000BA
:40270000293100005D310000A531000008B5224B18700023214A1370214A1370214A1370214A1370214A1370214A1370214A1370214B4FF400021A604FF080721A604FF46B
:4027400000121A6040221A6080221A604FF480721A6011B1012906D00BE0184A137803F0FE0313700AE0154A137843F00103137004E0124A137843F0010313700322104B82
:402780001A708022203B1A70012001F091FB04220C4B1A7008BD00BF0D8CFF1F108CFF1F2C8CFF1F2F8CFF1F248CFF1F2E8CFF1F318CFF1F0C8CFF1F00E100E0096000401E
:4027C000286000401260004038B504460D46064B1B7823B9FFF7FAFE0122034B1A7029462046FFF793FF38BDC585FF1F00230A4A13700A4A13700A4A13700A4A13700A4A9F
:4028000013700A4A13700A4A13700322094B1A708022203B1A707047108CFF1F2C8CFF1F2F8CFF1F248CFF1F2E8CFF1F318CFF1F0C8CFF1F28600040014B1878704700BF6C
:402840002F8CFF1F00EB40008300024A13445878704700BF348CFF1F431EDBB2072B0BD8064B00011A18185C00F00F00537843EA0020023880B2704700207047FC5F004063
:40288000431EDBB2072B3CD8F0B4074600EB4004A3001C4C2344DB889BB2C3F500739A4208D900EB400293002344DA8892B2C2F5007292B200EB4004A300124C2344DB7896
:4028C00043EA1223104D04012E192B55D3B2737039B909E0CE5C3D010C4C665501339BB200E000239A42F5D8420002449300054A134400225A705A79D2B20001044B1A54A0
:40290000F0BC7047348CFF1FFC5F004078600040FE5F0040431EDBB2072B0BD8420002449300054A134400225A705A79D2B20001024B1A54704700BF348CFF1FFE5F004052
:4029400070B5D9B1054614460E46C8B1082819D8FFF782FFA04203D22846FFF77DFF0446002305E02901094A525CF25401339BB2A342F7D32846FFF7CDFF04E0002402E0FA
:40298000002400E00024204670BD00BF786000400246002001E0013080B2135C002BFAD1704700BF10B4FF2400230EE0094AD25C02EB42029100084A11448A7AD2B28242D0
:4029C00001D11C4602230133DBB2012BEED9204610BC7047FC8BFF1F348CFF1F10B5204C2079FFF7DFFF237813F0800F0ED06378DBB2212B2FD11B4B07221A80C0EBC0006D
:402A0000194A1044586000F02BFB10BD144B5B78DBB2202B02D0222B10D01EE0114A07231380C0EBC00310490B4453600F4A135C43F00103135400F03BFB10BD084B9B789D
:402A40000B4A22F81030094A135C43F00203135400F0C4F910BD002010BD002010BD00BF00600040188CFF1F0085FF1FF48BFF1F088CFF1F10B500241F4B1C701F4B1C700A
:402A80005C700AE01E4B185DC0B2431EDBB2072B01D8FFF73FFF0134E4B2012CF2D9194B1B7813F0FF0F1AD0154B1B7813F0FF0F17D0154B1B7813F0FF0F14D0114B1B786C
:402AC000DBB2082B11D80E4B1B78DBB2082B0ED80D4B1B78DBB2082B0BD8002010BD012010BD012010BD012010BD012010BD012010BD012010BD00BFC685FF1FF48BFF1FC7
:402B0000008CFF1FF88BFF1FFC8BFF1F2DE9F8438046234B1B78234AD65CF6B2FFF738FF05460027344606EB460293001E4A13441B899BB29D4209D906EB460293001A4AC0
:402B40001344B3F808901FFA89F900E0A9464A4608EB07013046FFF793FEC9EB0505ADB245B906EB460293000F4A13441B899BB2994510D14F44BFB204EB440293000A4A62
:402B800013445B7813F0FF0FF6D025B9002211463046FFF775FE002DC4D1BDE8F88300BFC685FF1FF88BFF1F348CFF1F00B583B002A901F8010D054B1B78054AD05C01223A
:402BC000FFF75EFE03B05DF804FB00BFC685FF1FF88BFF1F08B5034B1B78034AD05CFFF731FE08BDC685FF1F008CFF1F08B5034B1B78034AD05CFFF725FE08BDC685FF1F41
:402C0000F88BFF1F08B5084B1B78084AD35CDBB203EB43018A0006490A44128992B201461846FFF78DFE08BDC685FF1F008CFF1F348CFF1FC37803F0030390F90200002847
:402C40000FDA032B06D002F001030B48C15442F001020EE0C2F380030848C15442F0040207E0032B05D0C2F340030548C15442F002021046704700BFF88BFF1FFC8BFF1F85
:402C8000008CFF1F1D4B19781D4A13889BB20B449BB2138000220FE01A494B681B78DBB2194883544B6801334B600132D2B20B889BB2013B9BB20B80124B1B889BB20BB12E
:402CC000072AE9D90D4B1B78DBB2082B00D05AB10E490B7883F080030B700F210C4B197002210C4B197004E0022309490B7009490B70094B1A70014B1A7070470C8CFF1F39
:402D00000E8CFF1F188CFF1F00600040A28CFF1F2D8CFF1F108CFF1F308CFF1F0222074B1A708022064B1A700F22064B1A700023054A1370054A137001207047108CFF1FE0
:402D4000A28CFF1F2D8CFF1F0C8CFF1F308CFF1F08B5FFF797FF08BD10B4194B197801F00F010239C9B2174A13889BB20B449BB21380002011E0144A5468144B1B5CDBB21C
:402D800023705368013353600130C0B20139C9B213889BB2013B9BB213800B4B1B889BB20BB10029E7D10A4B19700A4A137883F0800313700B22084B1A7010BC704700BF1D
:402DC000296000400E8CFF1F188CFF1F00600040308CFF1FA28CFF1F2D8CFF1F0623064A1370064A13708022054B1A700022054B1A700120704700BF108CFF1F2D8CFF1F84
:402E0000A28CFF1F308CFF1F064B9B6843B1054B9A6810709A6804490988518000229A60704700BF188CFF1F0E8CFF1F08B5134B1A78D2B21A701B78DBB213F0800F02D056
:402E40000F4A137008BD0220FFF7DEFF0D4B1B7803F06003202B05D0402B06D043B900F093FC06E001F034F803E000F037FE00E0002010B90322024B1A7008BD2860004042
:402E80002D8CFF1F0060004008B5094B1978094A13889BB20B449BB213800022064B1A700120FFF7B1FF0322044B1A7008BD00BF0C8CFF1F0E8CFF1F108CFF1F2D8CFF1F4A
:402EC00008B50B4B1B78DBB2042B06D0062B07D0022B0BD1FFF7D8FF08BDFFF73DFF08BD0320FFF791FF0322024B1A7008BD00BF108CFF1F2D8CFF1F08B50022044B1A708E
:402F00000120FFF781FF0322024B1A7008BD00BF108CFF1F2D8CFF1F08B50B4B1B7813F0FF0F07D0084A137843F0800307490B70002313700022064B1A700120FFF764FFE0
:402F40000322044B1A7008BD2E8CFF1F08600040108CFF1F2D8CFF1F08B5094B1B78DBB2042B06D0062B07D0022B07D1FFF7F0FE08BDFFF7C1FF08BDFFF7CEFF08BD00BFCF
:402F8000108CFF1F08B5284B1B78DBB213F0100F48D013F0800F0CD003F00F03012B16D1FFF744FF214B1B7813F0800F11D1012312E013F0400F03D0FFF7CEFF01230BE08E
:402FC00013F0200F07D0FFF77BFF012304E0002302E0002300E0002323B3134B1B7813F0800F1FD1124B1B78124A12781343124A13701278D2B2934214D10C4B1B78DBB292
:40300000094A127812F0800F07D1084B1B78DBB2054A1370137803F00F03044A1278D2B29342EAD108BD00BF286000402D8CFF1FA28CFF1F308CFF1F296000400022064B04
:403040001A80064B9B682BB1044A916800230B7092685380704700BF0E8CFF1F188CFF1F08B50F4B1B889BB213B9FFF757FE15E002220C4B1A7000220B4B1A70FFF7DEFFF7
:403080000A4AD179937943EA0123054A128892B2934201D2024A1380FFF7F4FD012008BD188CFF1F108CFF1FA28CFF1F0060004008B504220B4B1A7080220B4B1A70FFF7F1
:4030C000BDFF0A4AD179937943EA0123084A128892B2934201D2064A13800B22054B1A70012008BD108CFF1FA28CFF1F00600040188CFF1F2D8CFF1F0122094B1A700F3BE7
:403100009B7C084B1B7B03F00303934204D0054AD37B83F08003D3730122024B5A7370470B600040348CFF1F02220A4B1A700F3B93F82230084B1B7E03F00303012B04D088
:40314000054AD37E83F08003D3760122024B5A76704700BF0B600040348CFF1F04220C4B1A700F3B93F832300A4B93F8243003F00303012B06D0074A92F8273083F080039C
:4031800082F827300122034B83F82520704700BF0B600040348CFF1F704700BF08B5FFF725FB08BD08B500F0B3FC08BD70B588B0054603AC174E0FCE0FC43368237035B35D
:4031C00022232B7003236B7001A8FEF735FE002402231AE008AA224412F81C2C08A901EB121111F8141CE954581C00212954981C02F00F0208AE324412F8142C2A54DA1C87
:40320000A9540134E4B20433DBB2212BE2D908B070BD00BF0056000010B401233EE019461A010C242148845403EB4300820020480244527912F0FF0F13D003EB430082003E
:403240001B480244127912F0800F04D01801194A024494700AE01801164A02440820907004E01801134A0244802090704800084482000F480244D488E4B208010B49014497
:403280008C71D088C0F30720C871D088C0B20871D288C2F307224A710133DBB2082BBED9FF22054B1A7010BC704700BF70600040348CFF1FFC5F00400A600040074B1A7891
:4032C000074B03EBC2035B681A7C824204D9C0001030184440687047002070470D8CFF1F14560000F8B5404B1B7813F0FF0F79D03D4B18780138C0B2FFF7E0FF047AC268B7
:403300003A4B1878C0B200236AE01178884264D13749095CC9B25578A9425ED1917801F07F01D67806F00306DFF8C8E04D000D44AF000EEB07054FF0000C85F803C092F81D
:4033400002C085F804C092F803C00EF807C097882F8192F90250002D0DDA012E01D1072700E00D274E000E44B500224E35446F7101266E700CE0012E01D1052700E00927E1
:403380004E000E44B5001B4E35446F7100266E70DFF868E00F010EEB07060125B57001FA05F529448D00134929440D89C5F307250EF807500D89EDB27570CE88F6B20E4D70
:4033C0003D44AE71CE88C6F30726EE71CE88F6B22E71C988C1F30721697108320133DBB2A34292D3F8BD00BF2F8CFF1F248CFF1FA08CFF1F348CFF1F70600040FC5F0040BB
:40340000034B1A78034B03EBC2035868704700BF0D8CFF1F1456000008B5084B18780138C0B2FFF74BFF30B142681279023200EBC203586808BD002008BD00BF2F8CFF1FCD
:403440002DE9F047002310E0724D5900CA189600AC190022AA55A270E2702281A272627034462C4462710133DBB2082BECD940B90AE000226849CA546849CA540133DBB2AF
:4034800000E00023012BF4D9654B1B7813F0FF0F00F0BD80624B18780138C0B2FFF70EFF80464368DB7913F0400F05D05D4A137843F00103137004E05A4A137803F0FE03C5
:4034C000137098F808704FF0000A01266FE0D8F80C50002467E0AB7803F07F039E425FD1314606EB460083004A4803441B899BB2A888834206D206EB460E4FEA8E03454ADD
:40350000134418812B784448C35CDBB26878834246D195F802C0DFF8FCE04B000B4498000EEB000383F804C0EB780EF80030EB7803F0030395F90200002813DA012B02D1FC
:403540004FF0070901E04FF00D09DFF8C8E04B0003EB010C4FEA8C00704480F805900121417012E0012B02D14FF0050901E04FF00909DFF8A0E04B0003EB010C4FEA8C00D6
:40358000704480F8059000214170AB790A2B01D0022B05D1524631462846FFF74BFB824608350134E4B2BC4295D30136F6B2082E8DD9D8F80C0000220CE0837803F07F0387
:4035C00010F8084B03EB43039900124B19448C720132D2B2BA42F0D3FFF71EFF124B1860002301210FE00B4D4A00501884002C44E380228992B213449BB203F00102134418
:403600009BB20131C9B20829EDD9FFF705FEBDE8F08700BF348CFF1FA08CFF1F148CFF1F2F8CFF1F318CFF1F288CFF1F08B5154B1B7903F07F035A1ED2B2072A20D85900B5
:4036400019448A0010490A44917841F0010191700021D170517841F002015170127912F0800F05D01B01094A1A448D23937004E01B01064A1A4489239370FFF7AFFB08BD2C
:40368000002008BD00600040348CFF1FFC5F0040274B1B7903F07F035A1ED2B2072A44D810B5590019448A0022490A44917801F0FE0191700021D1701F4C1801215C01F03C
:4036C0007F012154517801F0FD015170127912F0800F13D003EB43018A0016490A445278D2B2012A04D1224602440C23937019E01B01114A1A440D23937013E003EB4301A0
:403700008A000C490A445278D2B2012A05D11B01094A1A440823937004E01B01064A1A4409239370FFF75AFB10BD0020704700BF00600040348CFF1FFC5F004010B50E4B50
:403740001C79E4B20D4B18780138C0B2FFF7B6FD43681B799C4201D9022C0AD8084A135DDBB208490B55044B9B78DBB21355012010BD002010BD00BF006000402F8CFF1F71
:40378000A08CFF1F148CFF1F10B59C4B1B78DBB200219B4A118013F0800F00F0AD80974A5278D2B20A2A00F27481DFE812F06900720172017201720172010B007201920024
:4037C00072019A008D4BDB78DBB2012B09D1FFF717FE42688A4B5A6012221A80FFF740FC10BD864BDB78DBB2022B13D1834B9878FFF764FD002800F04E814268804B5A60E0
:403800005A68D1785A68927842EA01221A80FFF727FC10BD794BDB78DBB2032B05D02CE00A7811440133DBB201E000237549734A9278D2B2934203D20A7812F0FF0FEFD18E
:403840006E4B9B7813F0FF0F0BD06C4B9B78DBB26D4A127C934204D16C4C2046FFF7A6FC21460B7813F0FF0F00F017810B78644A13805160FFF7F4FB10BD00F029FB10BD09
:4038800013F0030317D0022B40F009815C490B805A4B1B7903F07F0303EB43039A005C4B1A449278D2B25B4B1A7000225A704B60FFF7D6FB10BD524902230B80564B1A7819
:4038C000D2B2544B1A7000225A704B60FFF7C8FB10BD4B4B01221A80504A5A60FFF7C0FB10BD474A01231380444B1B794C490B445360FFF7B5FB10BD404A5278013A0A2AA1
:4039000000F2CF80DFE812F04C00CD009800CD000B00CD00CD00CD001300CD003000374B9B78DBB23F4A1370FFF758FA10BD334B9B7803F0FF041BB1601EC0B2FFF7BEFC47
:4039400004B110B9002C40F0AE80344B1B78DBB29C4206D0314B1C700120334B1870FFF76FFDFFF73BFA10BDFFF7E8FE002800F09C80224A1379DBB21279D2B22B490A70D1
:403980002B4AD25CD2B22649CB5CDBB29A4204D00122254B1A70FFF7A5FCFFF71FFA10BD03F00303012B17D04BB1022B7FD1134B9B7813F0FF0F7CD1FFF76AFE10BD0F4BA4
:4039C0009B78DBB2012B76D1134A137803F0FD031370FFF703FA10BD084B1B79DBB2012B6BD8064B98781B79DBB21249CA5C22EA0002CA54FFF7F2F910BD00BF0060004077
:403A0000188CFF1F7C56000060570000A88CFF1F348CFF1FC885FF1F318CFF1F2F8CFF1FA08CFF1F2E8CFF1F2C8CFF1F248CFF1F148CFF1FA48CFF1F03F00303012B17D00E
:403A40004BB1022B3BD1224B9B7813F0FF0F38D1FFF7ECFD10BD1E4B9B78DBB2012B32D11C4A137843F002031370FFF7B7F910BD174B1B79DBB2012B27D8154B98781B79C2
:403A8000DBB21549CA5C22EA0002CA54FFF7A6F910BD002010BD002010BD002010BD002010BD002010BD002010BD002010BD002010BD002010BD002010BD002010BD002018
:403AC00010BD002010BD002010BD002010BD00BF00600040318CFF1FA48CFF1F044B1B7813F0800F01D0024B5B780020704700BF00600040054A137843F004031370103236
:403B0000137843F004031370704700BFA2430040024B1878C0F38010704700BF8F450040014B1870704700BF87640040014B1878704700BF67640040014B1860704700BFEC
:403B400004650040024B1B78024B1868704700BF0465004044650040014B1868704700BF44650040014B1860704700BF24650040014B1860704700BF3465004008B501E008
:403B8000FFF7EAFFFFF7D2FF10F0400FF8D108BD08B5FFF7F3FF6FF00100FFF7E3FF0020FFF7CAFF0020FFF7BBFFFFF7BFFF6FF00100FFF7DDFF00F083F9044A137843F098
:403BC0001003137000F080F908BD00BF9764004008B5044B1B7823B9FFF7DAFF0122014B1A7008BDCA85FF1F044A137803F0EF03000100F01000184310707047F0510040C0
:403C0000024B1878C0F38000704700BF11510040014B1870704700BF75640040014B1878704700BF6B640040014B1870704700BF71640040014B1870704700BF70640040DB
:403C4000014B1878704700BF70640040014B1870704700BF72640040014B1878704700BF65640040014B1878704700BF6F640040014B1878704700BF64640040014B1B6895
:403C80005864704708ED00E04001C0B2014B1870704700BF01E400E00222014B1A60704700E100E00222014B1A60704780E100E010B50446FFF7F6FF2046FFF7DFFF07205B
:403CC000FFF7E2FFFFF7E8FF10BD00BF014B1B689864704708ED00E04001C0B2014B1870704700BF02E400E00422014B1A60704700E100E00422014B1A60704780E100E022
:403D000010B50446FFF7F6FF2046FFF7DFFF0720FFF7E2FFFFF7E8FF10BD00BF014B1B68D864704708ED00E04001C0B2014B1870704700BF03E400E00822014B1A607047E6
:403D400000E100E00822014B1A60704780E100E010B50446FFF7F6FF2046FFF7DFFF0720FFF7E2FFFFF7E8FF10BD00BF014B1B685865704708ED00E04001C0B2014B187060
:403D8000704700BF05E400E02022014B1A60704700E100E02022014B1A60704780E100E010B50446FFF7F6FF2046FFF7DFFF0720FFF7E2FFFFF7E8FF10BD00BF014B1B68DA
:403DC0001865704708ED00E04001C0B2014B1870704700BF04E400E01022014B1A60704700E100E01022014B1A60704780E100E010B50446FFF7F6FF2046FFF7DFFF07203A
:403E0000FFF7E2FFFFF7E8FF10BD00BF014B1870704700BF73640040044A137803F0FE0300F0010018431070704700BFF0510040014B1B681864704708ED00E04001C0B2C7
:403E4000014B1870704700BF00E400E00122014B1A60704700E100E00122014B1A60704780E100E010B50446FFF7F6FF2046FFF7DFFF0720FFF7E2FFFFF7E8FF10BD00BF57
:403E80000122014B1A60704780E200E0014B1878704700BF61640040014B1878704700BF67650040014B1878704700BF696400400230800803D000BF01380046FCD17047BD
:403EC000EFF3108072B6704780F31088704700BF08B5144B1B7803F00303012B02D0022B04D00FE00F4B1B79DBB20CE00D4B1B7903F07F0303EB43039A000B4B1A44937A03
:403F0000DBB200E00023022B07D8084A1268D35C022B04D1FEF762FD08BD002008BD002008BD00BF00600040348CFF1F288CFF1F014B1868704700BF7C85FF1F0E4B70B517
:403F40001E460E4C0025E41AA410A54204D056F8253098470135F8E701F026FC084B094C1E46E41AA4100025A54204D056F8253098470135F8E770BDB4570000B4570000CF
:403F8000B4570000BC57000010B5C9B202449042034605D01C7801308C42F8D1184610BD002010BD10B5431E0A44914204D011F8014B03F8014FF8E710BD0346024493422E
:403FC00002D003F8011BFAE7704710F8012B11F8013B012A28BF9A42F7D0D01A7047034613F8012B002AFBD1181A0138704730B582B1451E013915F8013F11F8014FA34299
:4040000006D1EC431444E04201D0002BF3D11C46181B30BD104630BD034610B542B111F8014B013A03F8014B002CF7D11A4400E010BD934202D003F8014BFAE710BD10B543
:404040009AB0009104916FF00041029105914FF6FF714FF40274ADF80E106946ADF80C4000F06AF8009B00221A701AB010BD000013460A46014602480068FFF7E0BF00BF10
:404080007C85FF1F2DE9F0478E6882469E420C46914698463ED88A8912F4906F3AD02568096902236F1A656905EB450595FBF3F57B1C43449D4238BF1D4653050FD5294688
:4040C00000F032FB064698B13A462169FFF76AFFA38923F4906343F08003A38113E02A4600F080FB064670B92169504600F0D0FA0C23CAF80030A3894FF0FF3043F0400347
:40410000A381BDE8F08726613E44266046466561ED1BA560464528BF464649463246206800F09AFAA36800209B1BA36023681E442660BDE8F08700002DE9F04F9DB0039395
:404140008B8980461C060D4616460DD50B695BB9402100F0E9FA2860286118B90C23C8F80030CDE040236B610023099320238DF82930DFF89CB130238DF82A3037463C46E4
:4041800014F8013B1BB9B7EB060910D003E0252BF9D02746F3E74B46324629464046FFF771FF013000F0A780099B4B4409933B78002B00F0A08000234FF0FF3204930793E2
:4041C000059206938DF853301A930126052221784E48FFF7D9FE671C049B38B14B4A3C46801A06FA00F018430490EFE7D90644BF20228DF853201A0744BF2B228DF853209A
:4042000022782A2A03D0079A00210A200BE0039A111D12680391002A10DA524243F00200079204900BE027463B780134303B092B03D800FB02320121F5E701B107923B781E
:404240002E2B1ED17B782A2B0AD1039B02371A1D1B680392002BB8BF4FF0FF33059310E0002319460593781C0A2407463A780130303A092A03D804FB01210123F5E703B1B9
:404280000591032239782248FFF77EFE40B14023CBEB000003FA00F0049B013718430490397806221B487E1C8DF82810FFF76CFE88B1194B33B9039B073323F0070308334D
:4042C000039314E003AB00932A46144B04A94046AFF3008007E003AB00932A460F4B04A9404600F093F8B0F1FF3F824603D0099B5344099342E7AB895B0601D4099801E0C9
:404300004FF0FF301DB0BDE8F08F00BF745700007A5700007E57000000000000854000002DE9F04791461F460A698B6806469342B8BF1346C9F8003091F843200C46DDF845
:40434000208012B10133C9F800302368990642BFD9F800300233C9F80030256815F0060510D104F1190A07E00123524639463046C04701301AD00135E368D9F800209B1AEC
:404380009D42F1DB94F843302268003318BF012392060FD5E118302081F843005A1C94F845102244023382F8431003E04FF0FF30BDE8F08704F1430239463046C047013087
:4043C000F4D02268D9F80050E36802F00602042A08BF5D1B2269A3680CBF25EAE57500259342C4BF9B1AED184FF000091A344D4509D00123224639463046C0470130D5D03C
:4044000009F10109F3E70020BDE8F0872DE9F04317460A7E85B06E2A984606460C460C9B01F1430E00F0AE8011D8632A22D009D8002A00F0BB80582A40F0CA8081F845206B
:40444000834955E0642A1ED0692A1CD0C0E0732A00F0B08009D86F2A2ED0702A40F0B8800A6842F020020A603EE0752A24D0782A3AD0ADE01A6801F14205111D1960136872
:4044800084F84230A8E021681A6811F0800F02D0111D196008E011F0400F02F10401196002D0B2F9003000E01368002B3CDA2D225B4284F8432037E021681A6811F0800F03
:4044C00002D0111D196007E011F0400F02F10401196001D0138800E01368227E5C496F2A14BF0A2208221BE078225A4984F845202268186812F0800F00F104051D6003D1CE
:40450000550601D5038800E00368D00744BF42F0200222601BB9226822F0200222601022002084F8430001E049490A226568002DA56008DB206820F0040020602BB9002DF1
:404540007DD175460CE0002B79D07546B3FBF2F002FB1033CB5C05F8013D03460028F5D1082A0BD12368DA0708D5236962689A42DEBF302305F8013C05F1FF35C5EB0E0310
:4045800023612EE008681A6810F0800F496903D0101D1860136808E010F0400F02F104001860136801D0198000E0196000232361754616E01A68111D196015680021626876
:4045C0002846FFF7E1FC08B1401B6060636804E004F1420584F8422001232361002384F84330CDF800803B4603AA21463046FFF797FE013002D14FF0FF3026E023692A46D4
:4046000039463046C0470130F5D023689B0710D5002504F1190907E001234A4639463046C0470130E7D00135E368039A9B1A9D42F2DBE068039B9842B8BF184605E00B783F
:4046400004F1420584F842308AE705B0BDE8F0838557000096570000884210B501EB020301D8421E0BE09842FBD28118D21AD34204D013F8014D01F8014DF8E710BD994229
:4046800004D011F8014B02F8014FF8E710BD000038B50546002944D051F8043C0C1F002BB8BFE41800F0D4F81E4A1368114613B96360146030E0A3420DD92268A018834239
:4046C00001BF18685B681218226063600C6023E0A24203D813465A68002AF9D118681918A1420BD12168014458188242196013D110685268014419605A600DE002D90C239B
:404700002B6009E021686018824201BF106852680918216062605C602846BDE8384000F098B838BDD085FF1F70B5CD1C25F0030508350C2D38BF0C25002D064601DBA942F2
:4047400002D90C23336046E000F082F8234B1C681A462146A1B10B685B1B0ED40B2B03D90B60CC18CD501EE08C420BBF63684B681360636018BF0C4615E00C464968E9E77D
:40478000174C23681BB9304600F052F820602946304600F04DF8431C18D0C41C24F00304A0420DD12560304600F053F804F10B00231D20F00700C31A0ED05A42E25070BDA8
:4047C000211A304600F034F80130EBD10C233360304600F03EF8002070BD00BFD085FF1FCC85FF1FF8B5074615460E4621B91146BDE8F840FFF798BF1AB9FFF749FF284630
:40480000F8BD00F027F885420ED929463846FFF78BFF044650B131462A46FFF7C3FB31463846FFF735FF01E03046F8BD2046F8BD38B5064C0023054608462360FDF700FA01
:40484000431C02D1236803B12B6038BDCC8CFF1F7047704751F8040C0028BEBF091851F8043CC018043870470000000057616974696E6720425553414B202E2E2E200000BD
:404880002E0000004F4B0D0A000000004641494C45440D0A0000000057616974696E67204255532072656C65617365202E2E2E2000000000253034583A200000253032589B
:4048C0000000000066696C6C696E672052414D207769746820706174747465726E0D0A00766572696679696E672052414D0D0A004572726F7220617420253034582C2065B3
:404900007870656374656420253032582C2062757420666F756E6420253032580D0A000066696C6C696E672052414D207769746820696E76657274656420706174747465AE
:40494000726E0D0A000000002564206572726F727320666F756E64203A2D280D0A0000004E6F206572726F727320666F756E64203A2D290D0A0000004461746120686173A5
:40498000206265656E20636F72727570746564206279206D656D6F727920746573742C20706572666F726D696E6720534150492072657365742E0D0A0000000043686563E4
:4049C0006B696E6720414E442D315A20766964656F2052414D203078463830302D3078464346460D0A0000004572726F7220617420253034582C20657870656374656420C7
:404A0000253032582C20666F756E6420253032580D0A00004E6F206572726F7320666F756E64203A2D290D0A00000000466F756E64202564206572726F7273203A2D280DF0
:404A40000A0000003A303230303030303425303458253032580D0A003A3230253032582530325830300000003A303030303030303146460D0A0000002564204552524F524A
:404A8000732077726974696E672064617461203A2D280D0A000000004261642064617461206F6E20706F7320256400004E6F7420656E6F75676820646174612062797465A1
:404AC000732C206F6E6C792025640D0A0000000042616420636865636B73756D2120466F756E6420253032582C206275742073686F756C642062652025303258203A2D28E4
:404B00000D0A0000426164206C656E6774682120466F756E6420253032582C206275742073686F756C642062652025303258203A2D280D0A00000000456E64204F66204635
:404B4000696C650D0A0000004E6F7420656E6F756768206461746120627974657320666F7220457874656E646564204C696E65617220416464726573732C206F6E6C7920C5
:404B800025640D0A00000000457874656E646564204C696E65617220416464726573732073657420746F20253034580D0A000000496E76616C696420636F6E74656E74203A
:404BC00072656365697665640D0A000025730D0A000000007A64756D702020202E2E2E2064756D70205A524D442061732048455820746F205553422073657269616C0D0A9E
:404C0000000000003A202020202020202E2E2E206C696E65207374617274696E672077697468203A2077696C6C20626520696E74657270726574656420617320496E74651D
:404C40006C20484558206C696E6520746F205A524D440D0A0000000068657820202020202E2E2E207374617274207370656369616C20616E642066617374657220496E7483
:404C8000656C2048455820696E707574206D6F646520666F72205A524D440D0A00000000726573636E7420202E2E2E2072657365742074696D6520636F756E7465722C2057
:404CC0006E756D626572206F6620696D706F72746564206C696E657320616E64206572726F72730D0A000000636E7420202020202E2E2E2073686F772074696D6520636F3F
:404D0000756E7465722C206E756D626572206F6620696D706F72746564206C696E657320616E64206572726F72730D0A00000000646D2020202020202E2E2E2064756D70A4
:404D4000206D656D6F72790D0A00000074726F6E202020202E2E2E20747261636520666F7220313620696E737472756374696F6E730D0A0076696474657374202E2E2E2040
:404D800074657374206F6620414E442D315A20766964656F2052414D20286E6F6E206465737472756374697665290D0A000000006D656D74657374202E2E2E20746573742E
:404DC000206F66204454522D312052414D2C207465737420697320646573747275637469766520616E64206E6565647320726573657420617420656E640D0A0072657365A5
:404E0000742020202E2E2E20534150492D31207265736574202852544C2070756C7365290D0A000068656C702C203F206F722068202E2E2E2073686F7720746869732068BB
:404E4000656C700D0A00000053415049204454522D31000038626974792E637A000000003230323130343235303100000D0A534150492D31204454522D3120626F61726427
:404E8000206261736564206F6E20435938434B49542D303539207265762E32333137303900000000202028632920323032312D3233206D617274696E4038626974792E6344
:404EC0007A0D0A0D0A000000436F6E736F6C652073657420746F20414E442D315A20616E6420436F6E73756C203236322E332F3235392E31310D0A00436F6E736F6C6520B2
:404F000073657420746F2052532D32333263205254532F43545320666C6F7720636F6E74726F6C0D0A0000000D0A48656C6C6F20746F20554152542052532D32333263207E
:404F4000636F6E736F6C650D0A0000004F4C454420646973706C6179206E6F7420666F756E642E0D0A0000004F4C454420646973706C61792064657465637465642E0D0A1A
:404F8000000000004454523E00000000545220253034583A253032580D0A00000820080068656C70000000003F000000680000007A64756D7000000064756D707500000017
:404FC000646D00007669647465737400686578006D656D74657374007265736574000000534150492072657365742E0D0A000000726573636E740000436F756E7465722032
:4050000072657365742E0D0A00000000636E7400456C61707365642074696D65203D202564206D732C202564206C696E65732070726F6365737365642C20256420657272FA
:405040006F72730D0A00000074726F6E000000000D0A556E6B6E6F776E20636F6D6D616E64205B25735D2C20757365202268656C7022206F7220223F2220666F72206865EE
:405080006C702E0D0A0D0A000021007F2200070000AED580A83FD300408D142000A1C8DA1281CFD9F1DB40A4A6AF000000000000003E5B4F5B3E3E6B4F6B3E1C3E7C3E1C5C
:4050C000183C7E3C181C577D571C1C5E7F5E1C00183C1800FFE7C3E7FF0018241800FFE7DBE7FF30483A060E2629792926407F050507407F05253F5A3CE73C5A7F3E1C1CE1
:4051000008081C1C3E7F14227F22145F5F005F5F06097F017F006689956A606060606094A2FFA29408047E040810207E201008082A1C08081C2A08081E101010100C1E0CF8
:405140001E0C30383E3830060E3E0E06000000000000005F00000007000700147F147F14242A7F2A12231308646236495620500008070300001C2241000041221C002A1C42
:405180007F1C2A08083E080800807030000808080808000060600020100804023E5149453E00427F400072494949462141494D331814127F1027454545393C4A49493141E6
:4051C000211109073649494936464949291E0000140000004034000000081422411414141414004122140802015909063E415D594E7C1211127C7F494949363E414141224F
:405200007F4141413E7F494949417F090909013E414151737F0808087F00417F41002040413F017F081422417F404040407F021C027F7F0408107F3E4141413E7F090909AE
:40524000063E4151215E7F09192946264949493203017F01033F4040403F1F2040201F3F4038403F631408146303047804036159494D43007F4141410204081020004141CC
:40528000417F04020102044040404040000307080020545478407F284444383844444428384444287F385454541800087E090218A4A49C787F0804047800447D400020409C
:4052C000403D007F1028440000417F40007C047804787C080404783844444438FC1824241818242418FC7C08040408485454542404043F44243C4040207C1C2040201C3CA3
:405300004030403C44281028444C9090907C4464544C4400083641000000770000004136080002010204023C2623263C1EA1A161123A4040207A38545455592155557941F4
:405340002254547842215554784020545579400C1E5272123955555559395454545939555454580000457C410002457D420001457C407D1211127DF0282528F07C54554500
:40538000002054547C547C0A097F4932494949323A4444443A324A4848303A4141217A3A42402078009DA0A07D3D4242423D3D4040403D3C24FF2424487E4943662B2FFC0F
:4053C0002F2BFF0929F620C0887E090320545479410000447D413048484A32384040227A007A0A0A727D0D19317D2629292F28262929292630484D402038080808080808B2
:405400000808382F10C8ACBA2F102834FA00007B000008142A142222142A1408AA005500AAAA55AA55AA000000FF00101010FF00141414FF001010FF00FF1010F010F014B3
:405440001414FC001414F700FF0000FF00FF1414F404FC141417101F10101F101F1414141F00101010F0000000001F101010101F10101010F010000000FF1010101010105C
:40548000101010FF10000000FF140000FF00FF00001F10170000FC04F414141710171414F404F40000FF00F714141414141414F700F7141414171410101F101F141414F473
:4054C000141010F010F000001F101F0000001F14000000FC140000F010F01010FF10FF141414FF141010101F00000000F010FFFFFFFFFFF0F0F0F0F0FFFFFF000000000093
:40550000FFFF0F0F0F0F0F3844443844FC4A4A4A347E02020606027E027E0263554941633844443C04407E201E2006027E020299A5E7A5991C2A492A1C4C7201724C304ACE
:405540004D4D303048784830BC625A463D3E494949007E0101017E2A2A2A2A2A44445F444440514A444040444A51400000FF0103E080FF000008086B6B08361236243606B9
:405580000F090F06000018180000001010003040FF0101001F01011E00191D1712003C3C3C3C000000000000C849004019004051004030000000014000088008014080076B
:4055C00000140140000800400140000A004C01400002105001401000005200409C0E0048070000510140A40E0048080000080140AC0E00488000005001402C0F0048100075
:405600003031323334353637383941424344454600000000010000001C560000010000006057000000000000000000000100000034560000010000001C570000030000009B
:405640006056000000000000000000000000000000000000000000005C560000020A000000008103080002000100820240000A000100030240000A000203000004030904F0
:405680002C0343007900700072006500730073002000530065006D00690063006F006E0064007500630074006F00720010035500530042005500410052005400380343009C
:4056C00044004300200043006F006D006D0075006E00690063006100740069006F006E00200049006E007400650072006600610063006500260343004400430020004400A5
:40570000610074006100200049006E0074006500720066006100630065000000090243000201018032090400000102020103052400100104240202052406000105240100A8
:40574000010705810308000A09040100020A0000040705820240000007050302400000001201000202000008B40432F20100010280014300232D302B2000686C4C006566CE
:4057800067454647003031323334353637383941424344454600303132333435363738396162636465660000F8B500BFF8BC08BC9E4670474D000000BD1C0000F8B500BF9B
:4057C000F8BC08BC9E46704729000000E0570000C880FF1FB80400005007000000000000000000000100000001000000303132333435363738394142434445460100000018
:405800004000000000000000000000000000000000000000000000000000000000000000000000000000000000000000000000000000000000000000000000000000000028
:405840000000000000000000000000000000000000000000000000000000000000000000000000000000000000000000000000000000000000000000000000000000000028
:4058800000000000000000000000000000000000000000000000000000000000000000000000000000000000000000000000000000000000000000000000000000000000E8
:4058C00000000000000000000000000000000000000000000000000000000000000000000000000000000000000000000000000000000000000000000000000000000000A8
:405900000000000000000000000000000000000000000000000000000000000000000000000000000000000000000000000000000000000000000000000000000000000067
:405940000000000000000000000000000000000000000000000000000000000000000000000000000000000000000000000000000000000000000000000000000000000027
:4059800000000000000000000000000000000000000000000000000000000000000000000000000000000000000000000000000000000000000000000000000000000000E7
:4059C00000000000000000000000000000000000000000000000000000000000000000000000000000000000000000000000000000000000000000000000000000000000A7
:405A00000000000000000000000000000000000000000000000000000000000000000000000000000000000000000000000000000000000000000000000000000000000066
:405A40000000000000000000000000000000000000000000000000000000000000000000000000000000000000000000000000000000000000000000000000000000000026
:405A800000000000000000000000000000000000000000000000000000000000000000000000000000000000000000000000000000000000000000000000000000000000E6
:405AC00000000000000000000000000000000000000000000000000000000000000000000000000000000000000000000000000000000000000000000000000000000000A6
:405B00000000000000000000000000000000000000000000000000000000000000000000000000000000000000000000000000000000000000000000000000000000000065
:405B40000000000000000000000000000000000000000000000000000000000000000000000000000000000000000000000000000000000000000000000000000000000025
:405B800000000000000000000000000000000000000000000000000000000000000000000000000000000000000000000000000000000000000000000000000000000000E5
:405BC00000000000000000000000000000000000000000000000000000000000000000000000000000000000000000000000000000000000000000000000000000000000A5
:405C000000000000D08CFF1F0000059A0A3401004F000000B643B30400C2010000000800C201000000080000A12000000000020000000000000000000000000000000000B4
:405C4000000000000000000000000000000000000000000072570000000000000000000000000000000000000000000000000000000000000000000000000000000000005B
:405C800000000000000000000000000000000000000000001C85FF1F0000000000000000000000000000000000000000000000000000000000000000000000000000000025
:405CC00000000000000000000000000000000000000000000000000000000000000000000000000000000000000000000000000000000000000000000000000000000000A4
:405D00000000000000000000000000000000000000000000000000000000000000000000000000000000000000000000000000000000000000000000000000000000000063
:405D40000000000000000000000000000000000000000000000000000000000000000000000000000000000000000000000000000000000000000000000000000000000023
:405D800000000000000000000000000000000000000000000000000000000000000000000000000000000000000000000000000000000000000000000000000000000000E3
:020000040003F7
:0200000480007A
:4000000001450040055200400564004001650040380001403D010140410201405B0301402F04014058050140450601405E070140060801405C0901404B0A0140560B0140C8
:400040001E0D0140490E01403A0F0140621401405A1501405C1601406017014040180140591901400C1B0140094001402F4101401C4201400F4301400B4501400D460140DA
:400080001247014015480140274901401B4C01400F4D0140075001407E0260826188782479247C40707F7507860F8767883C8872049F0660080C0A130CF51005120A1460AE
:4000C000169F180A1A051C101F012003221C2480261F28A02C402D012E95310132FF3E043F01580459045B045F018210868088558A228B018C778E889240940198339A441C
:400100009C08A004A702A802AE20B102B301B40FB6F0B820BE50D804D909DB04DC10DF010008030A040205A808A809020C100D800E400F141040120913081540160417018D
:400140001A201F9021012440260428402B412F2032803F205C405E0A5F20640265066708686069606C096E046F40712873417481761077047D208032838284C086128718B6
:4001800088208902C0F7C2FFC4DFCA48CC08CE20D6F0D8F0DE20E204E60E0010012004400A080B010C770D080E881055111C12221320148018201B021C331D041E44211011
:4001C0002202250C260127102A042B402D142F08310232F03301340F353C3740380839203E143F105608580459095B045C105D905F0184048A808C019055922294029A1021
:400200009C339E44A077A288A640A808AE20B0F0B20FB808BE05D804DB04DF0100200212040805900680080109490A040B010C090D100F0110801104139016441704188082
:400240001B041F182401260127282C152F80362037423C803D013E105C015D025E80681869416C046D046E406F807002719073107501761477017D2080408208831C85408B
:40028000871091229224934094109640970898109AC09BC49C889DAE9F21A041A108A202A340A404A5D2A689A720AA05AB91AC08AE80AF18B160B240B305C0F7C2FFC47F92
:4002C000CAF0CCB0CEB0D610DE20E00AE401E640EA0C054B07B0098C0B700FB4100217031B431F0222032301250C2790298C2B332D0C2F20300131803402357F3B203E10B5
:400300003F0154FF580459045B0B5C205D905F018B019A019C02AF02B201B302B402B501BE10D4FFD809D909DB0BDC11DD90DF01042005100A800F0512401A881E081F0460
:400340002008211023802410270828082B612F023008319035043708380439203A043B803F2058425A145C425E146140620263246542660867046C406D406F1474807580EA
:40038000770278017D21800481028408858086028C048D218F04904091029230934494109708984299419A089C089DA49F02A003A352A484A553A688A842AA30AB02AC445A
:4003C000AF2CB240B480B548C2C8C408CA1FCC0ECE2ED6FFD8FFDEA1E204E64AE82DEC05000F030104030505070208050A080E030F02100A12041304160F180F1D031E0F55
:400400001F04200F21072308240F280F2C0F2F083008310F320334043E153F015401580459045B045D205F01890193039B04A308A702AA01AB01B001B107B308C065C10203
:40044000C5E0C6C0C70BC81AC9FFCAFFCBFFCEF0CF44D00CD407D804D904DA04DB04DC28DD02DF11E6C0EA40EB02044C0542070808400B020D400F941320145016021720E3
:400480001B021C441D0820202102274028882A042C8231023210354138203C063F40400848044B815208532059205A885E285F81612478207A107B207C407D8080808320B4
:4004C0008420870489088A018B018C208D128F0290A09142922893C0940895019701981899019A049B969C019E40A087A204A304A552A688A720A818AC04AE04AF40B010AA
:40050000B301B680C0F0C2F0C4F2CA97CC95CED4D004D20CD6FED806DE04E209E408E6B1E880EA0DEC029401B401BE10D804DB04DF0104800518074009080CA40D040F8454
:40054000100811201481152016421A041D801E201F022442251027102C402D102E08350137143C403D213F08444047144D104E024F205402560459205A8A5F0A60146180DD
:400580006201654067087C0880228408870289608A048E079014912B92829308942A962098C099109A089B089C2A9EA09F15A020A102A310A40AA704A940AA18AB02AC90F9
:4005C000AD20B080B104B602C0F0C2F4C4D0CAE0CCE0CEF0D0E0D230D6CFD83FDE40E0A0E240E440E690E840EA200B021408160118071B0823042402260428072B01300CF9
:400600003108330234033504370138223E104002460449FF4A074BFF4C404D204EF04F0550085608580459045A045B045C825D925F21604061A8624063208104820183032D
:40064000856687188B068D01910492019303976699089B369D019F02A318A50AA770AB01AE02B201B33CB554B602B703B802BBA8BE05D4FFD804D904DB0ADC20DD90DF01D1
:40068000040208100B200C02112816021A041B021C021D021F04201422412594265028802A202C902D1031103401365839203D093E50420443C049404A0251605240531051
:4006C00058205B405D405F2661406220640465846780780979027E20810482108380850186188D1091739240938494289620984499849B2A9C129EC09F15A020A310A409F8
:40070000A594A602A706A9C0AB22AD10AF40B020B580C010C216C486CAE5CCF4CEF4D004D6FCD8FCDE42E240E640EA123D013E028104840487049112924094289540962071
:40074000978498409A029B089C169D849EC09F37A310A409A514A602A706A880AB02AE40B011B104E640EA80000C020306200A100C030E0C12201408160218051A0A1C05C7
:40078000220F240F280A2A05300F34303A023E10521C58045B045C025D205F0180808147824083B8843F850987F6883F89368BC98C208DB88F479014920995FF980A99FFA2
:4007C0009A11A2C0A3FFA401A51BA606A724A840A924AA80AB12AD36AEC0AFC9B0C0B207B33FB418B5C0B620BA02BB08D4FFD804D904DB08DC22DD90DF0100240101020175
:40080000042805010701081A09420D2210801128151A16031B311C241D611E40241027082C482E802F203040314037143C903E023F084D104E045D405F266404658467800D
:40084000684069036A0872027E028104821085018602880889408B01C0FFC25FC4FECAF0CC60CEF0D6F0D8F0DE10E280E4201202160417012304260127023104320434016F
:400880003502360237014041410349FF4AFF4BFF4DA04F0150185608580459045A045B045C885F116040628064406540668068406A506BA86C406D206E506FA882018501E7
:4008C00086088A128B018C138E2C910192019501960199019A019C409D01A040A202A301A501A620A901AA01AE04AF01B009B240B301B407B631BE55BF04C041C103C9FF39
:40090000CAFFCBFFCDAFCE07CF01D018D608D804D904DA04DB04DD90DF01E040E280E440E540E680E840EA50EBA8EC40ED20EE50EFA8048005020604071008040B400C2413
:400940000E020F4010201408154016801704181419401D801F26204022102302242029022B102C902F093104361237883E083F104002414943014402450847015888590411
:400980005D815F0162806701782083108480880489088B408C208D068F02908091C293129474950196209708983099809A8C9B9C9C029D409F03A080A213A308A588A6809F
:4009C000A720A801AC10AF10C0F0C2FCC4F4CAF3CCF2CE60D0DBD618D818DE04E070E490E840EA0CEE20000105010B010F011101170119011D012302250129012C012F018B
:400A00003502360137013F404041410349FF4AFF4BFF4DAF4E074F0150185608580459045A045B045C115D905F016040628064406540668068406A506BA86C406D206E503D
:400A40006FA883038A089102920496019A02A608B008B101B201B402B604B702BE01BF40C041C103C55EC6C0C702C81FC9FFCAFFCBFFCDAFCE07CF01D018D804D904DA0420
:400A8000DB04DC08DF11E040E280E440E540E680E840EA50EBA8EC40ED20EE50EFA80020051006880A080BA01020174019081A021B111F80210222402402251026402B0CC3
:400AC0002C102F893102361237A83B013E483F90414944024508470149044B014D204E0851605248588059085A205B025E8060546140640178208080824183E08580860614
:400B000087048A808B488C908D808E048F1090809142931295019682970C983099109B349C019D249E409F08A020A304A530A680A741A940AB41AF10B010B102B602B70631
:400B4000C012C20EC484CAF0CCF1CE71D0DBD61FD81FDE04E020E20FE640EA09EE0C00730208047F0502087C09180A030C020D041003110613191519161017061853191F16
:400B80001A241E2C200323192401250E2711280329062C10301F324033073423350E37103A023B283E0456025711580459045B045C225D205F01850289028D029102930170
:400BC00097029F02A102A702A902AD02B301B502BF10D608D904DB04DC80DD90DF210501068107140C400D010E0C0F181402151117081D211E2022142604270629182A4026
:400C00002B402C402D102E24308535013714388039203B043C803E083F2058A05E2060026C146F0174407629770878087A027B02804083408510888091239314942896285F
:400C4000984D99189A409B109C029D019E809F07A080A102A350A602A704A840A908AA20AB40AC20AD04AE10B108B310B480B740C0F0C2F0C4F0CAEFCCEBCE7ED62CD8086C
:400C8000DE02E020E209E6B0E810EA05ECA0EE04888089029C80A102AD20AF02B420E440E620E840EA04EE20304032083420350839208108CCF0CE10E6200202038805200B
:400CC0000720080809840C0C0E050F0830023280371851405301560857025B025D04634065106C8081D08302840C850486028C02934295209C60A608A708AB09AF40C0F022
:400D0000C2F0CCF0D4E0D6E0D8C0DC40E050E2A0E490E660EC80EE6000023C205040830486048F10920495209C709F1AA202A304A480A688A924ABA0AC08AE09AF80B01044
:400D4000C010CE20D420E040E420E8F0ECB0EE4084C089108B088C40948095209C709F0AA490A688AE02B001E210E610E840004003100622080409400D100F408E40C00F95
:400D8000C20FE6028D048E0290409340964098049A229B10AD40B110E202E602EE0409240E4089208B808C40904096409A209B10A504B004B340C20EE202E404E601EA04AA
:400DC000EE01040853805E80800483808411864088108E089C10A410A688AB02AC20C020D420D620E210E490E660EE900002030805240A010B200C080F08101014201A0235
:400E000071017720810486018A018B108C088D208F0499019B209C30A401A708A901AA80AF08B320B420C0F0C2F0C430C640DC80DE20E4C0EA20EC40EE2008080A040E1022
:400E40000F0113181610750179027F208210871089018A048F0196109B809C08A808AA10AB10B620C20FC40EDE07E004E60CEE021010778088108D019B809D01AB08B21097
:400E8000B720C408DE04E204E402E802EE041007110112141A031B011C041D016A59FFFF00000000FFAF02C000000000003004CE03F2080D0B400010080803060AAC005385
:400EC000005F1BA00BFF0000090000000B0000FE00C0003E0B5600A80B000000070E080000F010010080002A0000050034020500060000EC30FFFFFF62A0F0410C00000044
:400F00001C0000000404040428220021000000000000400200103010001010120000000000000000000000000000000007011400000000000201070105010401FF0000FF26
:400F4000FF00FFFF00000000B30054A8AB008B000020000000200000000000007C00022C3D002C00C0000000F400F4030B00000000010000FFFFFF0000000000FF00FF008A
:400F80000000000000000000000000000000000000000000000000000000000000000000000000000000000000000000000000000000000000000000000000000000000031
:400FC00000000000000000000000000000000000000000000000000000000000000000000000000000000000000000000000000000000000000000000000000000000000F1
:4010000000000000000000000000000000000000000000000000000000000000000000000000000000000000000000000000000000000000000000000000000000000000B0
:401040000000000000000000000000000000000000000000000000000000000000000000000000000000000000000000000000000000000000000000000000000000000070
:0200000490006A
:0400000000004005B7
:0200000490105A
:04000000BC90ACAF55
:0200000490303A
:020000001D2CB5
:0200000490402A
:4000000000000000000000000000000000000000000000000000000000000000000000000000000000000000000000000000000000000000000000000000000000000000C0
:400040000000000000000000000000000000000000000000000000000000000000000000000000000000000000000000000000000000000000000000000000000000000080
:400080000000000000000000000000000000000000000000000000000000000000000000000000000000000000000000000000000000000000000000000000000000000040
:4000C0000000000000000000000000000000000000000000000000000000000000000000000000000000000000000000000000000000000000000000000000000000000000
:0200000490501A
:0C00000000012E16106900012E3B2D950A
:00000001FF